:100000000AC0F4C007C006C005C004C003C002C0D7
:100010000BC100C01895112410E0A0E6B0E0E8E99B
:10002000F2E002C005900D92A236B107D9F720E0A8
:10003000A2E6B0E001C01D92A237B207E1F700E4EA
:1000400001BD78947894B998C19AB89A85B78062BE
:1000500085BF85B7806185BF8BB780648BBF78947F
:1000600033E083E0E82EF12C21E043E094E6D92E42
:1000700059E1C52E80916000882371F085B78062B8
:1000800085BF8BB780648BBF85B7806285BF88953D
:1000900085B78F7D85BF06C085B78F7D85BF8BB740
:1000A0008F7B8BBFBAD08090690090906A00A0903F
:1000B0006B00B0906C0088199909AA09BB09C39715
:1000C000A105B10508F467C086B381FB002700F9DC
:1000D00010E081FD13C08091680081110FC08091F4
:1000E000670081110BC099D08093630090936400E6
:1000F000A0936500B0936600209368008ED0809036
:10010000630090906400A0906500B090660088192C
:100110009909AA09BB09012B09F063C05091670036
:10012000511130C0883E9340A105B10558F120938C
:1001300067008091610090E00196B70186D08093BE
:1001400061008091620081111DC01AC01092680088
:1001500010926700883E9340A105B10598F4809104
:100160006200882369F080916100E199FECF1EBA98
:100170008DBBE29AE19A409361002093600002C037
:10018000209362004AD08093690090936A00A09304
:100190006B00B0936C0080916100813069F028F0B1
:1001A000823089F08330B1F065CF33BFB89A8FB514
:1001B0008F778FBDC09A5ECF33BFB89A8FB58368F3
:1001C0008FBDD6BE57CF33BFB89A8FB583688FBD6A
:1001D000C6BE50CF83BFB89A8FB58F778FBDC098FA
:1001E00049CF509168005111B1CFCCCF1F920F92DF
:1001F0000FB60F9211248F93E199FECF1EBAE09AA9
:100200008DB38093610010926200109260008F9114
:100210000F900FBE0F901F901895EDE6F894819106
:100220009191A191B1911895EF93EFB7EF930F933F
:10023000EDE600810D5E02C000810F4F0193E0F7F3
:100240000F91EF91EFBFEF91189597FB072E16F4E2
:10025000009406D077FD08D00BD007FC05D03EF403
:10026000909581959F4F0895709561957F4F089562
:10027000AA1BBB1B51E107C0AA1FBB1FA617B707CC
:1002800010F0A61BB70B881F991F5A95A9F78095E8
:080290009095BC01CD01089519
:02029800010360
:00000001FF
