:100000000AC09BC107C006C005C004C003C002C02F
:10001000B2C100C01895112410E0A0E6B0E0E6EEF1
:10002000F3E002C005900D92A436B107D9F720E0A5
:10003000A4E6B0E001C01D92A238B207E1F700E4E7
:1000400001BD78947894B998C19AB89A85B78062BE
:1000500085BF85B7806185BF8BB780648BBF78947F
:10006000552453948CE3682E712C9CED892E95E0D9
:10007000992E08EC10E028E5C22E22E0D22E34E8BA
:10008000A32E33E0B32E80916000882371F085B7F2
:10009000806285BF8BB780648BBF85B7806285BF68
:1000A000889585B78F7D85BF06C085B78F7D85BF55
:1000B0008BB78F7B8BBF58D14091700050917100EE
:1000C0006091720070917300841B950BA60BB70BA7
:1000D000C397A105B10508F469C086B381FBEE247E
:1000E000E0F8F12C81FD13C080916F0081110FC0E9
:1000F00080916E0081110BC037D180936A0090937C
:100100006B00A0936C00B0936D0050926F002CD1E7
:1001100040916A0050916B0060916C0070916D008D
:10012000841B950BA60BB70BEF2809F0A3C02091F9
:100130006E00211132C0883E9340A105B10568F1DF
:1001400050926E008091620090E0019667E070E04E
:1001500023D1809362008091690081111EC01BC071
:1001600010926F0010926E00883E9340A105B10579
:10017000A0F480916900882371F080916200E19978
:10018000FECF1EBA8DBBE29AE19A87E080936200AF
:100190005092600002C050926900E6D080937000D7
:1001A00090937100A0937200B0937300E09162008D
:1001B000E83008F068CFF0E0E152FF4F099407C043
:1001C00008C009C00BC013C01DC048C051C0C09AB0
:1001D0005ACF84E601C089E152D055CFD0927C003D
:1001E000C0927B00B0927A00A09279003FC0109339
:1001F0007C0000937B008CE291E090937A008093E6
:10020000790034C0B1D04091750050917600609172
:10021000770070917800841B950BA60BB70B0F9796
:10022000A105B10508F42FCF9FD08093750090935E
:100230007600A0937700B0937800C09174008C2F63
:100240001ED080916100C80FC0937400C150CE3F92
:1002500008F419CF81958093610015CF70927C00CE
:1002600060927B0090927A00809279001ED00BCF32
:1002700080E0B2CF20916F00211172CF8ECF93E03A
:1002800093BFB89A811105C08FB58F778FBDC09885
:1002900008958F3F29F48FB58F778FBDC09A089549
:1002A0009FB593689FBD86BF0895409164005091AB
:1002B00065006091660070916700809168008823F6
:1002C00059F152D0841B950BA60BB70B40917B00C4
:1002D00050917C0070E060E084179507A607B7078F
:1002E00058F142D08093640090936500A09366001B
:1002F000B09367001092680080E00DC035D0809305
:10030000640090936500A0936600B093670081E05D
:10031000809368008FEFB3CF27D0841B950BA60B7B
:10032000B70B4091790050917A0070E060E084173B
:100330009507A607B70710F708951F920F920FB6FB
:100340000F9211248F93E199FECF1EBAE09A8DB3DC
:100350008093620010926900109260008F910F905C
:100360000FBE0F901F901895EDE7F8948191919131
:10037000A191B1911895EF93EFB7EF930F93EDE73C
:1003800000810D5E02C000810F4F0193E0F70F91D5
:10039000EF91EFBFEF91189597FB072E16F400949D
:1003A00006D077FD08D00BD007FC05D03EF4909521
:1003B00081959F4F0895709561957F4F0895AA1B71
:1003C000BB1B51E107C0AA1FBB1FA617B70710F040
:1003D000A61BB70B881F991F5A95A9F78095909572
:0603E000BC01CD010895EF
:0403E6000105070006
:00000001FF
