:100000000AC09AC107C006C005C004C003C002C030
:10001000B1C100C01895112410E0A0E6B0E0E6E9F7
:10002000F3E002C005900D92A236B107D9F720E0A7
:10003000A2E6B0E001C01D92AD37B207E1F700E4DF
:1000400001BD78947894B998C19AB89A85B78062BE
:1000500085BF85B7806185BF8BB780648BBF78947F
:10006000552453948CE3682E712C9CED892E95E0D9
:10007000992E0EE511E028E5C22E22E0D22E30E2C4
:10008000A32E33E0B32E80916000882371F085B7F2
:10009000806285BF8BB780648BBF85B7806285BF68
:1000A000889585B78F7D85BF06C085B78F7D85BF55
:1000B0008BB78F7B8BBF57D140916E0050916F00F3
:1000C0006091700070917100841B950BA60BB70BAB
:1000D000C397A105B10508F468C086B381FBEE247F
:1000E000E0F8F12C81FD13C080916D0081110FC0EB
:1000F00080916C0081110BC036D180936800909381
:100100006900A0936A00B0936B0050926D002BD1F0
:10011000409168005091690060916A0070916B0095
:10012000841B950BA60BB70BEF2809F0A0C02091FC
:100130006C00211131C0883E9340A105B10560F1EA
:1001400050926C008091610090E001968770992731
:10015000809361008091670081111EC01BC01092C6
:100160006D0010926C00883E9340A105B105A0F48B
:1001700080916700882371F080916100E199FECF42
:100180001EBA8DBBE29AE19A88E08093610050929A
:10019000600002C050926700E6D080936E0090939A
:1001A0006F00A0937000B0937100E0916100E9309E
:1001B00008F069CFF0E0E252FF4F099408C009C08F
:1001C0000AC00BC016C023C02FC03FC04DC0C09A8C
:1001D0005ACF84E64AC089E148C010937700009363
:1001E000760086E980937500109374000093730085
:1001F00037C088E790E0909377008093760024E6FC
:1002000020937500909374008093730029C0D0925E
:100210007700C09276008FEF80937500B0927400E3
:10022000A092730080E50EC01093770000937600D3
:100230008FEF809375008AEF90E090937400809325
:10024000730084E6809372000DC070927700609214
:1002500076008FEF80937500909274008092730007
:10026000109272001FD00FCF80E006D00CCF2091EB
:100270006D00211174CF90CF93E093BFB89A811194
:1002800005C08FB58F778FBDC09808958F3F29F433
:100290008FB58F778FBDC09A08959FB593689FBD26
:1002A00086BF0895409162005091630060916400A0
:1002B0007091650080916600882369F154D0841B99
:1002C000950BA60BB70B409176005091770070E02C
:1002D00060E084179507A607B70768F144D08093BC
:1002E000620090936300A0936400B0936500109245
:1002F0006600809172000EC036D0809362009093A9
:100300006300A0936400B093650081E08093660071
:1003100080917500B1CF27D0841B950BA60BB70B2E
:10032000409173005091740070E060E0841795076D
:10033000A607B70708F708951F920F920FB60F92FE
:1003400011248F93E199FECF1EBAE09A8DB380936A
:10035000610010926700109260008F910F900FBEA5
:100360000F901F901895E8E7F89481919191A191D1
:10037000B1911895EF93EFB7EF930F93E8E70081F2
:100380000D5E02C000810F4F0193E0F70F91EF91D6
:06039000EFBFEF9118958C
:0203960001085C
:00000001FF
